:100000000C9434000C9451000C9451000C94510049
:100010000C9451000C9451000C9451000C9451001C
:100020000C9451000C9451000C9451000C9451000C
:100030000C9451000C9451000C9451000C945100FC
:100040000C9451000C9451000C9451000C945100EC
:100050000C9451000C9451000C9451000C945100DC
:100060000C9451000C94510011241FBECFEFD8E026
:10007000DEBFCDBF14E0A0E0B1E0E6E6F5E002C0EF
:1000800005900D92AE3FB107D9F725E0AEEFB4E091
:1000900001C01D92A430B207E1F70E94FF010C9449
:1000A000B1020C940000409882E390E0289AEFE9B6
:1000B000FFE03197F1F700C000002898EFE9FFE07A
:1000C0003197F1F700C00000019781F7409AFFEFE8
:1000D0002DEE82E0F15020408040E1F700C00000AA
:1000E0000895419882E390E0299AEFE9FFE0319783
:1000F000F1F700C000002998EFE9FFE03197F1F730
:1001000000C00000019781F7419AFFEF2DEE82E0D9
:10011000F15020408040E1F700C00000089542986F
:1001200082E390E02A9AEFE9FFE03197F1F700C00F
:1001300000002A98EFE9FFE03197F1F700C00000D6
:10014000019781F7429AFFEF2DEE82E0F1502040B7
:100150008040E1F700C000000895439882E390E0FA
:100160002B9AEFE9FFE03197F1F700C000002B98E0
:10017000EFE9FFE03197F1F700C00000019781F748
:10018000439AFFEF2DEE82E0F15020408040E1F7EE
:1001900000C000000895449882E390E02C9AEFE9B3
:1001A000FFE03197F1F700C000002C98EFE9FFE085
:1001B0003197F1F700C00000019781F7449AFFEFF3
:1001C0002DEE82E0F15020408040E1F700C00000B9
:1001D00008952D9A0E9453002D9808952D9A0E94FB
:1001E00071002D9808952D9A0E948F002D980895E2
:1001F0002D9A0E94AD002D9808952D9A0E94CB0053
:100200002D980895409884E690E0289AEFE9FFE061
:100210003197F1F700C000002898EFE9FFE031972F
:10022000F1F700C00000019781F7409AFFEF2DEE33
:1002300082E0F15020408040E1F700C000000895C6
:10024000419884E690E0299AEFE9FFE03197F1F7D1
:1002500000C000002998EFE9FFE03197F1F700C0F6
:100260000000019781F7419AFFEF2DEE82E0F150F7
:1002700020408040E1F700C000000895429884E6E5
:1002800090E02A9AEFE9FFE03197F1F700C0000013
:100290002A98EFE9FFE03197F1F700C000000197DD
:1002A00081F7429AFFEF2DEE82E0F150204080402E
:1002B000E1F700C000000895439884E690E02B9A8F
:1002C000EFE9FFE03197F1F700C000002B98EFE96C
:1002D000FFE03197F1F700C00000019781F7439AE2
:1002E000FFEF2DEE82E0F15020408040E1F700C0AA
:1002F00000000895449884E690E02C9AEFE9FFE02E
:100300003197F1F700C000002C98EFE9FFE031973A
:10031000F1F700C00000019781F7449AFFEF2DEE3E
:1003200082E0F15020408040E1F700C000000895D5
:100330000F931F93CF93DF9388EE94E08093020195
:1003400020E030E0A6E442E350E561E3B2E4CCE42F
:10035000D2E515E50CE289B18F77F901E050FF4F46
:10036000882309F446C0C9010196489B02C0108346
:100370000FC0499B02C0D0830BC04A9B02C0C08300
:1003800007C04B9B02C0B08303C04C9B1DC0A08321
:1003900079B17076703229F4FC01E050FF4F608330
:1003A00011C079B17076703429F4FC01E050FF4F30
:1003B000508308C079B17076703621F4FC01E050AA
:1003C000FF4F40832E5F3F4FF901E050FF4F008306
:1003D0002F5F3F4F459A8FE39CE90197F1F700C0EB
:1003E000000045988FE39CE90197F1F700C00000F9
:1003F000B2CF1182DF91CF911F910F9108958FE3BA
:1004000084B915B88FE287B918B81AB81BB880E05C
:10041000E82E81E0F82E88B18F6188B94F9BFBCF21
:100420000E949801F70101900020E9F73197EF0150
:10043000C050D14000E011E0C801805091408C17BD
:100440009D074CF7F80190818181953529F481331E
:10045000F9F40E94530052C0923529F48133E9F433
:100460000E9471004BC09C3429F48133D9F40E945E
:100470008F0044C0923429F48133C9F40E94AD0046
:100480003DC09634B9F58133B9F40E94CB0036C033
:100490008035B9F40E94E90031C08035B9F40E947A
:1004A000EE002CC08035B9F40E94F30027C08035DF
:1004B000B9F40E94F80022C08035B9F40E94FD0012
:1004C0001DC08233B9F40E94020118C0823391F436
:1004D0000E94200113C0823369F40E943E010EC0C5
:1004E000823341F40E945C0109C0823319F40E94F6
:1004F0007A0104C08EEE94E00E9481020D5F1F4FCE
:100500009BCF0F931F93CF93DF93E0910005F09162
:100510000105238121FF1BC08C01D0E0C0E0F80160
:1005200081918F016091000570910105DB011896A2
:10053000ED91FC911997882331F00995892B79F376
:10054000DFEFCFEFECCF8AE00995892B19F08FEF21
:100550009FEF02C08D2F9C2FDF91CF911F910F91A4
:060560000895F894FFCF9E
:1005660048656C6C6F000000000000000000000091
:100576000000000000000000000000000000000075
:100586000000000000000000000000000000000065
:100596000000000000000000000000000000000055
:1005A6000000000000000000000000000000000045
:10094600000000000000000048656C6C6F004D6FF1
:0E09560076652052656164204552524F520072
:00000001FF
